:03000000020322D6
:0C032200787FE4F6D8FD758122020369A3
:10067500C0F9A4B0999282F88090BFFF7F8883C6A5
:10068500A1868E89C78CC1C801020408102040804C
:060695000000000000005F
:100767000910FEFDFBF7EFDFBF7FFF011C19010A30
:010777000081
:0605CD00A9057F017E007C
:1005D300E4FDFCC3ED9FEE6480F8EC648098501456
:1005E3007B4D7A03EB1B70011AEB4A70F70DBD00CC
:0405F300010C80DF98
:0105F70022E1
:04052D007D0C7F05BD
:100531008F221205CDE5A0541F44C0F5A0E52290FD
:10054100068D93F580E5A0541F44E0F5A0E99006DF
:100551007593F5807F011205D3E5A0541F44C0F5C2
:08056100A0E4F58053A01F2265
:100569008F221205CDE5A0541F44C0F5A0E52290C5
:10057900068D93F580E5A0541F44E0F5A0E99006A7
:100589008293F5807F011205D3E5A0541F44C0F57D
:08059900A0E4F58053A01F222D
:1007AC00E5A0541F4480F5A074102FF8E6F58022C4
:10077900D2B3D2B2D2B1D2B0D2B4D2B5D2C2D2C42B
:01078900224D
:10042D0012064E7FCC1206BB7F441206BB12064E3F
:10043D007FCC1206BB7FBE1206BB1207108F221295
:10044D000710EF75F010A4FFE522C4540FFDE5F081
:10045D00F50BEF4DF50CE522545D751A00F51BAE4D
:10046D000BAF0C7C007D641201C87E007F0ACFCDDE
:10047D00CFCECCCE1201C88F0FAE0BAF0C7C007D52
:10048D000A1201C8AB058B19AE1AAF1B7C007D0A91
:07049D001201C88F088B0952
:0104A4002235
:10069B008F221207BC7F901205A112079B7F40127D
:1006AB0005A112079BAF221205A112079B0207D7C8
:1005F8007D02E4FF120569AD0F7F04120531AD19C4
:100608007F05120531AD087F0612053112052DADA3
:0B061800097F071205317F010207ACCB
:100623007F021207AC7D08E4FF120569E51C75F033
:100633000A84FD7F06120531E51C75F00A84ADF0CE
:0B0643007F0712053112075402074127
:1003AE00120261E50A7023FDFF120569AD1E7F057D
:1003BE0012053112052DE4FD7F06120531E4FD7F95
:1003CE000712053175A0807580F6E50A6401704E3E
:1003DE00FDFF120569AE1DAF1E7C007D641201C8C3
:1003EE00AD077F0512053112052DAE1DAF1E7C0027
:1003FE007D641201C87E007F0ACFCDCFCECCCE1247
:10040E0001C8AD077F06120531AE1DAF1E7C007D03
:0F041E000A1201C87F071205317F031207AC22B3
:10026100E50A703112042DD3E50C951C7480F865F4
:100271000B98400B751D00751E057FFF12069BC371
:10028100E50C951C7480F8650B985009E4F51DF593
:100291001EFF12069BE50A6401600302032112049A
:1002A1002DD3E50C9414E50B648094805006751DE4
:1002B10000751E01D3E50C9414E50B648094804015
:1002C1004CE50C9428E50B648094805040AC0BAD58
:1002D1000CEC12010E7B017A007970784112000357
:1002E1001201478E1D8F1EC3E51E9490E51D64808B
:1002F10094814006751D01751E90D3E51E94C8E5D5
:100301001D648094805006751D00751EC8C3E50CE0
:100311009428E50B648094804006751D00751E04C9
:0103210022B9
:1004A500C2B3D2B220C44220C4051205F880F812A6
:1004B5000261120623C2B3D2B220C4F320C40512CE
:1004C50003AE80F81204EFC2B3D2B220C4F620C442
:1004D500051205F880F87F031207AC12042D1202ED
:0A04E500611205F81204A580ED2253
:10074100C2B3D2B220C20B20B30820C20330B3FA25
:03075100151C2252
:10075400C2B2D2B320C20B20B20820C20330B2FA14
:03076400051C224F
:1004EF00752104C2B2D2B320C40B20B20820C403BA
:1004FF0030B2FA0521E52120E009E4F50A12026184
:10050F001203AEE52130E015750A011202611203E4
:0D051F00AE20C4F420B2F120C40330B2FAC3
:01052C0022AC
:10078A001207791204A512026112042D1205F880CB
:01079A00EF6F
:0407CB00D2A07F0534
:0807CF0000AE071FEE70F922D5
:0F07BC00D2A11207CBC2A17F051207CFC2A02284
:0C07D700C2A11207CBD2A17F050207CF00
:10072A00C2A0A20092A17F051207CF1207CBC2A0D6
:07073A00D2A17F050207CFE9
:10079B001207CBA2A19201C2A07F051207CFA20123
:0107AB00222B
:0205A100AD07A4
:1005A300E4FCC2A07F051207CFED30E704D2A1809F
:1005B30002C2A17F051207CFD2A0ED25E0FD7F0582
:0905C3001207CF0CBC08DBC2A03A
:0105CC00220C
:1006D900E4FC1207CBED25E0FD30A103430501C27F
:0C06E900A07F051207CF0CBC08E8AF058D
:0106F50022E2
:0406F6007F057E00FE
:1006FA00EF1FAA0670011E4A600BE4FDEDC3940CBD
:05070A0050EE0D80F728
:01070F0022C7
:0206BB00A9078D
:1006BD00E4FBC294E91392941206F6D294E9C313A3
:0C06CD00F90BBB08ED7F057E000206FA69
:10071000E4FBC294ECC313FCD294309403430480F2
:090720001206F60BBB08EBAF0456
:0107290022AD
:10064E00C201D2947F0C7E001206FAC2947F507EB5
:10065E00001206FAD2947F0A7E001206FAA2949233
:06066E00011206F6A201D4
:010674002263
:10000300EC4D6011E8497017ED33EC3304600DE4F7
:10001300FCFFFEFD22E933E8330470F80201B3125A
:10002300017E58046009E4CC24815006285009025B
:1000330001BD2840030201BAC0E0EB4A7044B98015
:1000430006D0E0FB0201A9EF4E701CBD8008EBFF58
:10005300EAFEE9FD80EBE98DF0A4FEE5F00200EC99
:10006300E9CDF9EAFEEBFFEF89F0A4FCE5F0CE89D8
:10007300F0A42EFFE435F0CD89F0A42DFEE435F095
:100083008067EF4E7005BD80D780C3EF8BF0A4ACC3
:10009300F0EE8BF0A42CFCE435F0F8EF8AF0A42CFE
:1000A300E5F038FCE433CB8DF0A42CFCE5F03BF811
:1000B300EE8AF0A42CFCE5F038F8E433CF89F0A401
:1000C3002CFCE5F038CF3400CE89F0A42FFFE5F007
:1000D3003EFEE433C98DF0A42EFEE5F039CD8AF05F
:1000E300A42FFFE5F03EFEE43DFD33D0E0FB5007D7
:1000F3000BBB000F0201BDEC2CFCEF33FFEE33FE14
:06010300ED33FD02019541
:1001090075F020800E75F010800575F0087D007E71
:10011900007F003392D530D5031201FEEC33401035
:10012900EF33FFEE33FEED33FDEC33FCD5F0ED227A
:0E013900E5F0247EA2D513CC92E7CDCEFF22B6
:10014700EDD2E7CD33EC3392D524814006E4FFFEB0
:10015700FDFC22FCE4CFCECDCC24E0501174FF800F
:10016700EDC3CC13CCCD13CDCE13CECF13CF0470AC
:07017700F030D5DE0201FEAD
:10017E00E9D2E7C933E833F892D5EDD2E7CD33ECC7
:07018E0033FC5002B2D52240
:10019500EC30E7100FBF000C0EBE00080DBD0004CB
:1001A5000BEB6014A2D5EB13FCED92E7FD2274FF77
:1001B500FCFDFEFF22E480F8A2D574FF13FC7D80D0
:0301C500E480EFE4
:10032E0002078AE493A3F8E493A34003F68001F254
:10033E0008DFF48029E493A3F85407240CC8C333D0
:10034E00C4540F4420C8834004F456800146F6DF9F
:10035E00E4800B0102040810204080900767E47EC1
:10036E00019360BCA3FF543F30E509541FFEE49394
:10037E00A360010ECF54C025E060A840B8E493A35B
:10038E00FAE493A3F8E493A3C8C582C8CAC583CA86
:10039E00F0A3C8C582C8CAC583CADFE9DEE780BE3E
:010778000080
:1001C800C2D5EC30E709B2D5E4C39DFDE49CFCEE52
:1001D80030E715B2D5E4C39FFFE49EFE12020CC3BC
:1001E800E49DFDE49CFC800312020C30D507C3E4B7
:0601F8009FFFE49EFE22C1
:0E01FE00C3E49FFFE49EFEE49DFDE49CFC2212
:10020C00BC000BBE0029EF8DF084FFADF022E4CCD6
:10021C00F875F008EF2FFFEE33FEEC33FCEE9DEC9F
:10022C00984005FCEE9DFE0FD5F0E9E4CEFD22EDE5
:10023C00F8F5F0EE8420D21CFEADF075F008EF2F2F
:10024C00FFED33FD4007985006D5F0F222C398FD20
:05025C000FD5F0EA22BD
:00000001FF
